{
  "_format": "hh-sol-artifact-1",
  "contractName": "RelayProxy",
  "sourceName": "contracts/RelayProxy.sol",
  "abi": [
    {
      "inputs": [
        {
          "internalType": "contract IDai",
          "name": "_dai",
          "type": "address"
        },
        {
          "internalType": "contract IERC20OrderRouter",
          "name": "_erc20orderRouter",
          "type": "address"
        }
      ],
      "stateMutability": "nonpayable",
      "type": "constructor"
    },
    {
      "inputs": [],
      "name": "dai",
      "outputs": [
        {
          "internalType": "contract IDai",
          "name": "",
          "type": "address"
        }
      ],
      "stateMutability": "view",
      "type": "function"
    },
    {
      "inputs": [],
      "name": "erc20OrderRouter",
      "outputs": [
        {
          "internalType": "contract IERC20OrderRouter",
          "name": "",
          "type": "address"
        }
      ],
      "stateMutability": "view",
      "type": "function"
    },
    {
      "inputs": [
        {
          "components": [
            {
              "internalType": "uint256",
              "name": "nonce",
              "type": "uint256"
            },
            {
              "internalType": "uint256",
              "name": "expiry",
              "type": "uint256"
            },
            {
              "internalType": "bool",
              "name": "allowed",
              "type": "bool"
            },
            {
              "internalType": "uint8",
              "name": "v",
              "type": "uint8"
            },
            {
              "internalType": "bytes32",
              "name": "r",
              "type": "bytes32"
            },
            {
              "internalType": "bytes32",
              "name": "s",
              "type": "bytes32"
            }
          ],
          "internalType": "struct RelayProxy.PermitData",
          "name": "_permitData",
          "type": "tuple"
        },
        {
          "internalType": "uint256",
          "name": "_amount",
          "type": "uint256"
        },
        {
          "components": [
            {
              "internalType": "address",
              "name": "module",
              "type": "address"
            },
            {
              "internalType": "address",
              "name": "inputToken",
              "type": "address"
            },
            {
              "internalType": "address payable",
              "name": "owner",
              "type": "address"
            },
            {
              "internalType": "address",
              "name": "witness",
              "type": "address"
            },
            {
              "internalType": "bytes",
              "name": "limitOrderData",
              "type": "bytes"
            },
            {
              "internalType": "bytes32",
              "name": "secret",
              "type": "bytes32"
            }
          ],
          "internalType": "struct RelayProxy.TokenOrder",
          "name": "_tokenOrder",
          "type": "tuple"
        }
      ],
      "name": "submitDaiLimitOrder",
      "outputs": [],
      "stateMutability": "nonpayable",
      "type": "function"
    }
  ],
  "bytecode": "0x60c060405234801561001057600080fd5b5060405161071438038061071483398101604081905261002f9161004d565b6001600160601b0319606092831b8116608052911b1660a05261009f565b6000806040838503121561006057600080fd5b825161006b81610087565b602084015190925061007c81610087565b809150509250929050565b6001600160a01b038116811461009c57600080fd5b50565b60805160601c60a05160601c61062a6100ea60003960008181604b0152818161029e015261035401526000818160a30152818160cf015281816101c701526102cd015261062a6000f3fe608060405234801561001057600080fd5b50600436106100415760003560e01c8063537c5bf014610046578063e8135a6314610089578063f4b9fa751461009e575b600080fd5b61006d7f000000000000000000000000000000000000000000000000000000000000000081565b6040516001600160a01b03909116815260200160405180910390f35b61009c610097366004610499565b6100c5565b005b61006d7f000000000000000000000000000000000000000000000000000000000000000081565b6001600160a01b037f000000000000000000000000000000000000000000000000000000000000000016638fcbaf0c610104606084016040850161043b565b308635602088013561011c60608a0160408b0161045f565b61012c60808b0160608c016104f2565b6040516001600160e01b031960e089901b1681526001600160a01b039687166004820152959094166024860152604485019290925260648401521515608483015260ff1660a4820152608086013560c482015260a086013560e482015261010401600060405180830381600087803b1580156101a757600080fd5b505af11580156101bb573d6000803e3d6000fd5b50506001600160a01b037f00000000000000000000000000000000000000000000000000000000000000001691506323b872dd9050610200606084016040850161043b565b6040516001600160e01b031960e084901b1681526001600160a01b03909116600482015230602482015260448101859052606401602060405180830381600087803b15801561024e57600080fd5b505af1158015610262573d6000803e3d6000fd5b505050506040513d601f19601f82011682018060405250810190610286919061047c565b5060405163095ea7b360e01b81526001600160a01b037f000000000000000000000000000000000000000000000000000000000000000081166004830152602482018490527f0000000000000000000000000000000000000000000000000000000000000000169063095ea7b390604401602060405180830381600087803b15801561031157600080fd5b505af1158015610325573d6000803e3d6000fd5b505050506040513d601f19601f82011682018060405250810190610349919061047c565b506001600160a01b037f00000000000000000000000000000000000000000000000000000000000000001663486046a883610387602085018561043b565b610397604086016020870161043b565b6103a7606087016040880161043b565b6103b7608088016060890161043b565b6103c46080890189610580565b8960a001356040518963ffffffff1660e01b81526004016103ec989796959493929190610515565b600060405180830381600087803b15801561040657600080fd5b505af115801561041a573d6000803e3d6000fd5b50505050505050565b600060c0828403121561043557600080fd5b50919050565b60006020828403121561044d57600080fd5b8135610458816105ce565b9392505050565b60006020828403121561047157600080fd5b8135610458816105e6565b60006020828403121561048e57600080fd5b8151610458816105e6565b600080600061010084860312156104af57600080fd5b6104b98585610423565b925060c0840135915060e084013567ffffffffffffffff8111156104dc57600080fd5b6104e886828701610423565b9150509250925092565b60006020828403121561050457600080fd5b813560ff8116811461045857600080fd5b8881526001600160a01b038881166020830152878116604083015286811660608301528516608082015260e060a0820181905281018390526000610100848682850137600083860182015260c083019390935250601f909201601f1916909101019695505050505050565b6000808335601e1984360301811261059757600080fd5b83018035915067ffffffffffffffff8211156105b257600080fd5b6020019150368190038213156105c757600080fd5b9250929050565b6001600160a01b03811681146105e357600080fd5b50565b80151581146105e357600080fdfea26469706673582212209bb9716576f8672a705802947696f529523f6b819f489ff7071ddfdadb95a18964736f6c63430008060033",
  "linkReferences": {},
  "deployedLinkReferences": {}
}