{
  "_format": "hh-sol-artifact-1",
  "contractName": "RelayProxy",
  "sourceName": "contracts/RelayProxy.sol",
  "abi": [
    {
      "inputs": [
        {
          "internalType": "contract IDai",
          "name": "_dai",
          "type": "address"
        }
      ],
      "stateMutability": "nonpayable",
      "type": "constructor"
    },
    {
      "inputs": [],
      "name": "dai",
      "outputs": [
        {
          "internalType": "contract IDai",
          "name": "",
          "type": "address"
        }
      ],
      "stateMutability": "view",
      "type": "function"
    },
    {
      "inputs": [
        {
          "components": [
            {
              "internalType": "uint256",
              "name": "nonce",
              "type": "uint256"
            },
            {
              "internalType": "uint256",
              "name": "expiry",
              "type": "uint256"
            },
            {
              "internalType": "bool",
              "name": "allowed",
              "type": "bool"
            },
            {
              "internalType": "uint8",
              "name": "v",
              "type": "uint8"
            },
            {
              "internalType": "bytes32",
              "name": "r",
              "type": "bytes32"
            },
            {
              "internalType": "bytes32",
              "name": "s",
              "type": "bytes32"
            }
          ],
          "internalType": "struct RelayProxy.PermitData",
          "name": "_permitData",
          "type": "tuple"
        },
        {
          "internalType": "uint256",
          "name": "_amount",
          "type": "uint256"
        },
        {
          "components": [
            {
              "internalType": "address",
              "name": "module",
              "type": "address"
            },
            {
              "internalType": "address",
              "name": "inToken",
              "type": "address"
            },
            {
              "internalType": "address payable",
              "name": "owner",
              "type": "address"
            },
            {
              "internalType": "address",
              "name": "witness",
              "type": "address"
            },
            {
              "internalType": "bytes",
              "name": "limitOrderData",
              "type": "bytes"
            },
            {
              "internalType": "bytes32",
              "name": "secret",
              "type": "bytes32"
            }
          ],
          "internalType": "struct RelayProxy.TokenOrder",
          "name": "_tokenOrder",
          "type": "tuple"
        }
      ],
      "name": "submitDaiLimitOrder",
      "outputs": [],
      "stateMutability": "nonpayable",
      "type": "function"
    }
  ],
  "bytecode": "0x60a060405234801561001057600080fd5b5060405161043d38038061043d83398101604081905261002f91610044565b60601b6001600160601b031916608052610074565b60006020828403121561005657600080fd5b81516001600160a01b038116811461006d57600080fd5b9392505050565b60805160601c61039f61009e60003960008181605501528181609d0152610195015261039f6000f3fe608060405234801561001057600080fd5b50600436106100365760003560e01c8063e8135a631461003b578063f4b9fa7514610050575b600080fd5b61004e6100493660046102dc565b610093565b005b6100777f000000000000000000000000000000000000000000000000000000000000000081565b6040516001600160a01b03909116815260200160405180910390f35b6001600160a01b037f000000000000000000000000000000000000000000000000000000000000000016638fcbaf0c6100d26060840160408501610272565b30863560208801356100ea60608a0160408b016102a2565b6100fa60808b0160608c01610335565b6040516001600160e01b031960e089901b1681526001600160a01b039687166004820152959094166024860152604485019290925260648401521515608483015260ff1660a4820152608086013560c482015260a086013560e482015261010401600060405180830381600087803b15801561017557600080fd5b505af1158015610189573d6000803e3d6000fd5b50506001600160a01b037f00000000000000000000000000000000000000000000000000000000000000001691506323b872dd90506101ce6060840160408501610272565b6040516001600160e01b031960e084901b1681526001600160a01b03909116600482015230602482015260448101859052606401602060405180830381600087803b15801561021c57600080fd5b505af1158015610230573d6000803e3d6000fd5b505050506040513d601f19601f8201168201806040525081019061025491906102bf565b50505050565b600060c0828403121561026c57600080fd5b50919050565b60006020828403121561028457600080fd5b81356001600160a01b038116811461029b57600080fd5b9392505050565b6000602082840312156102b457600080fd5b813561029b81610358565b6000602082840312156102d157600080fd5b815161029b81610358565b600080600061010084860312156102f257600080fd5b6102fc858561025a565b925060c0840135915060e084013567ffffffffffffffff81111561031f57600080fd5b61032b8682870161025a565b9150509250925092565b60006020828403121561034757600080fd5b813560ff8116811461029b57600080fd5b801515811461036657600080fd5b5056fea26469706673582212207ab5367e73eb359a9ae15f551ba66d3c3c847f7a2c4db92098cc6c9a875459c164736f6c63430008060033",
  "linkReferences": {},
  "deployedLinkReferences": {}
}